{
  "contractName": "Berserkers10",
  "abi": [
    {
      "constant": true,
      "inputs": [
        {
          "name": "",
          "type": "uint256"
        },
        {
          "name": "",
          "type": "uint256"
        }
      ],
      "name": "defenseMod",
      "outputs": [
        {
          "name": "",
          "type": "uint256"
        }
      ],
      "payable": false,
      "stateMutability": "view",
      "type": "function"
    },
    {
      "constant": true,
      "inputs": [],
      "name": "totalDividendPoints",
      "outputs": [
        {
          "name": "",
          "type": "uint256"
        }
      ],
      "payable": false,
      "stateMutability": "view",
      "type": "function"
    },
    {
      "constant": true,
      "inputs": [
        {
          "name": "",
          "type": "address"
        }
      ],
      "name": "stake",
      "outputs": [
        {
          "name": "",
          "type": "uint256"
        }
      ],
      "payable": false,
      "stateMutability": "view",
      "type": "function"
    },
    {
      "constant": true,
      "inputs": [
        {
          "name": "",
          "type": "uint256"
        },
        {
          "name": "",
          "type": "uint256"
        }
      ],
      "name": "attackMod",
      "outputs": [
        {
          "name": "",
          "type": "uint256"
        }
      ],
      "payable": false,
      "stateMutability": "view",
      "type": "function"
    },
    {
      "constant": true,
      "inputs": [
        {
          "name": "",
          "type": "uint256"
        }
      ],
      "name": "unitsPrice",
      "outputs": [
        {
          "name": "",
          "type": "uint256"
        }
      ],
      "payable": false,
      "stateMutability": "view",
      "type": "function"
    },
    {
      "constant": true,
      "inputs": [
        {
          "name": "",
          "type": "uint256"
        }
      ],
      "name": "auctionStartTime",
      "outputs": [
        {
          "name": "",
          "type": "uint256"
        }
      ],
      "payable": false,
      "stateMutability": "view",
      "type": "function"
    },
    {
      "constant": true,
      "inputs": [],
      "name": "unclaimedDividends",
      "outputs": [
        {
          "name": "",
          "type": "uint256"
        }
      ],
      "payable": false,
      "stateMutability": "view",
      "type": "function"
    },
    {
      "constant": true,
      "inputs": [],
      "name": "pointMultiplier",
      "outputs": [
        {
          "name": "",
          "type": "uint256"
        }
      ],
      "payable": false,
      "stateMutability": "view",
      "type": "function"
    },
    {
      "constant": true,
      "inputs": [
        {
          "name": "",
          "type": "uint256"
        }
      ],
      "name": "owner",
      "outputs": [
        {
          "name": "",
          "type": "address"
        }
      ],
      "payable": false,
      "stateMutability": "view",
      "type": "function"
    },
    {
      "constant": true,
      "inputs": [
        {
          "name": "",
          "type": "address"
        }
      ],
      "name": "playerVault",
      "outputs": [
        {
          "name": "",
          "type": "uint256"
        }
      ],
      "payable": false,
      "stateMutability": "view",
      "type": "function"
    },
    {
      "constant": true,
      "inputs": [
        {
          "name": "",
          "type": "uint256"
        }
      ],
      "name": "soldierAmount",
      "outputs": [
        {
          "name": "",
          "type": "uint256"
        }
      ],
      "payable": false,
      "stateMutability": "view",
      "type": "function"
    },
    {
      "constant": true,
      "inputs": [
        {
          "name": "",
          "type": "address"
        },
        {
          "name": "",
          "type": "uint256"
        }
      ],
      "name": "unitsOwned",
      "outputs": [
        {
          "name": "",
          "type": "uint256"
        }
      ],
      "payable": false,
      "stateMutability": "view",
      "type": "function"
    },
    {
      "constant": true,
      "inputs": [
        {
          "name": "",
          "type": "uint256"
        }
      ],
      "name": "unitsLeftForSale",
      "outputs": [
        {
          "name": "",
          "type": "uint256"
        }
      ],
      "payable": false,
      "stateMutability": "view",
      "type": "function"
    },
    {
      "constant": true,
      "inputs": [],
      "name": "totalSupplyStake",
      "outputs": [
        {
          "name": "",
          "type": "uint256"
        }
      ],
      "payable": false,
      "stateMutability": "view",
      "type": "function"
    },
    {
      "constant": true,
      "inputs": [
        {
          "name": "",
          "type": "uint256"
        }
      ],
      "name": "soldiertype",
      "outputs": [
        {
          "name": "",
          "type": "uint256"
        }
      ],
      "payable": false,
      "stateMutability": "view",
      "type": "function"
    },
    {
      "inputs": [],
      "payable": false,
      "stateMutability": "nonpayable",
      "type": "constructor"
    },
    {
      "payable": true,
      "stateMutability": "payable",
      "type": "fallback"
    },
    {
      "anonymous": false,
      "inputs": [
        {
          "indexed": true,
          "name": "player",
          "type": "address"
        },
        {
          "indexed": true,
          "name": "price",
          "type": "uint256"
        },
        {
          "indexed": true,
          "name": "unit",
          "type": "uint256"
        }
      ],
      "name": "unitsBought",
      "type": "event"
    },
    {
      "anonymous": false,
      "inputs": [
        {
          "indexed": true,
          "name": "attacker",
          "type": "address"
        },
        {
          "indexed": true,
          "name": "defender",
          "type": "address"
        },
        {
          "indexed": true,
          "name": "spot",
          "type": "uint256"
        },
        {
          "indexed": false,
          "name": "winner",
          "type": "address"
        }
      ],
      "name": "battle",
      "type": "event"
    },
    {
      "anonymous": false,
      "inputs": [
        {
          "indexed": true,
          "name": "price",
          "type": "uint256"
        },
        {
          "indexed": true,
          "name": "time",
          "type": "uint256"
        }
      ],
      "name": "pricing",
      "type": "event"
    },
    {
      "constant": true,
      "inputs": [
        {
          "name": "account",
          "type": "address"
        }
      ],
      "name": "dividendsOwing",
      "outputs": [
        {
          "name": "",
          "type": "uint256"
        }
      ],
      "payable": false,
      "stateMutability": "view",
      "type": "function"
    },
    {
      "constant": false,
      "inputs": [],
      "name": "topUp",
      "outputs": [],
      "payable": true,
      "stateMutability": "payable",
      "type": "function"
    },
    {
      "constant": false,
      "inputs": [
        {
          "name": "account",
          "type": "address"
        }
      ],
      "name": "fetchdivs",
      "outputs": [],
      "payable": false,
      "stateMutability": "nonpayable",
      "type": "function"
    },
    {
      "constant": false,
      "inputs": [],
      "name": "vaultToWallet",
      "outputs": [],
      "payable": false,
      "stateMutability": "nonpayable",
      "type": "function"
    },
    {
      "constant": false,
      "inputs": [
        {
          "name": "unit",
          "type": "uint256"
        }
      ],
      "name": "DutchAuctionBuy",
      "outputs": [],
      "payable": false,
      "stateMutability": "nonpayable",
      "type": "function"
    },
    {
      "constant": false,
      "inputs": [
        {
          "name": "spot",
          "type": "uint256"
        },
        {
          "name": "unit",
          "type": "uint256"
        }
      ],
      "name": "Attack",
      "outputs": [],
      "payable": false,
      "stateMutability": "nonpayable",
      "type": "function"
    },
    {
      "constant": true,
      "inputs": [],
      "name": "getBattlefieldInfo",
      "outputs": [
        {
          "name": "_Owner",
          "type": "address[]"
        },
        {
          "name": "locationData",
          "type": "uint256[]"
        }
      ],
      "payable": false,
      "stateMutability": "view",
      "type": "function"
    },
    {
      "constant": true,
      "inputs": [
        {
          "name": "account",
          "type": "address"
        }
      ],
      "name": "getPlayerInfo",
      "outputs": [
        {
          "name": "locationData",
          "type": "uint256[]"
        }
      ],
      "payable": false,
      "stateMutability": "view",
      "type": "function"
    },
    {
      "constant": true,
      "inputs": [],
      "name": "getAuctionInfo",
      "outputs": [
        {
          "name": "locationData",
          "type": "uint256[]"
        }
      ],
      "payable": false,
      "stateMutability": "view",
      "type": "function"
    }
  ],
  "bytecode": "0x6080604052678ac7230489e8000060095534801561001c57600080fd5b50600a600d819055504260066000808152602001908152602001600020819055504260066000600181526020019081526020016000208190555042600660006002815260200190815260200160002081905550620f42406007600080815260200190815260200160002081905550620f4240600760006001815260200190815260200160002081905550620f424060076000600281526020019081526020016000208190555066038d7ea4c68000600860008081526020019081526020016000208190555066038d7ea4c6800060086000600181526020019081526020016000208190555066038d7ea4c6800060086000600281526020019081526020016000208190555060008090505b600d548110156101bd577367edfe6e933b6a9bcb923e036d976b48e43cf3306001600083815260200190815260200160002060006101000a81548173ffffffffffffffffffffffffffffffffffffffff021916908373ffffffffffffffffffffffffffffffffffffffff16021790555060c860026000838152602001908152602001600020819055508080600101915050610127565b50600a600460008081526020019081526020016000206000808152602001908152602001600020819055506023600460008081526020019081526020016000206000600181526020019081526020016000208190555060016004600080815260200190815260200160002060006002815260200190815260200160002081905550600a6004600060018152602001908152602001600020600080815260200190815260200160002081905550600560046000600181526020019081526020016000206000600181526020019081526020016000208190555060196004600060018152602001908152602001600020600060028152602001908152602001600020819055506014600460006002815260200190815260200160002060008081526020019081526020016000208190555060016004600060028152602001908152602001600020600060018152602001908152602001600020819055506005600460006002815260200190815260200160002060006002815260200190815260200160002081905550601e60056000808152602001908152602001600020600080815260200190815260200160002081905550601e6005600080815260200190815260200160002060006001815260200190815260200160002081905550600a60056000808152602001908152602001600020600060028152602001908152602001600020819055506005806000600181526020019081526020016000206000808152602001908152602001600020819055506014600560006001815260200190815260200160002060006001815260200190815260200160002081905550601e600560006001815260200190815260200160002060006002815260200190815260200160002081905550602d600560006002815260200190815260200160002060008081526020019081526020016000208190555060058060006002815260200190815260200160002060006001815260200190815260200160002081905550600f600560006002815260200190815260200160002060006002815260200190815260200160002081905550600a600f60007367edfe6e933b6a9bcb923e036d976b48e43cf33073ffffffffffffffffffffffffffffffffffffffff1673ffffffffffffffffffffffffffffffffffffffff168152602001908152602001600020819055506120e8806105306000396000f3fe608060405260043610610168576000357c0100000000000000000000000000000000000000000000000000000000900480638391e45c116100d3578063c7e93bd11161008c578063c7e93bd1146107fe578063cefb3605146108b2578063d94a3505146108c9578063dc29f1de14610935578063f22184041461093f578063f54e8e141461096a57610168565b80638391e45c146105ac578063a123c33e14610611578063ab6e988c1461068c578063b20581d6146106f1578063c1431eda14610740578063c1ef8765146107af57610168565b8063358fcee911610125578063358fcee9146103df5780633cb802b914610430578063593284011461045b5780636441712b14610501578063658b98a91461053c578063722bf2491461056757610168565b80631d00ca4a146101ff5780632113342d1461025857806326476204146102835780632eec74bf146102e857806332d8ff881461034157806333465c5f14610390575b6101ba34600e60003373ffffffffffffffffffffffffffffffffffffffff1673ffffffffffffffffffffffffffffffffffffffff168152602001908152602001600020546109b990919063ffffffff16565b600e60003373ffffffffffffffffffffffffffffffffffffffff1673ffffffffffffffffffffffffffffffffffffffff16815260200190815260200160002081905550005b34801561020b57600080fd5b506102426004803603604081101561022257600080fd5b8101908080359060200190929190803590602001909291905050506109da565b6040518082815260200191505060405180910390f35b34801561026457600080fd5b5061026d6109ff565b6040518082815260200191505060405180910390f35b34801561028f57600080fd5b506102d2600480360360208110156102a657600080fd5b81019080803573ffffffffffffffffffffffffffffffffffffffff169060200190929190505050610a05565b6040518082815260200191505060405180910390f35b3480156102f457600080fd5b5061032b6004803603604081101561030b57600080fd5b810190808035906020019092919080359060200190929190505050610a1d565b6040518082815260200191505060405180910390f35b34801561034d57600080fd5b5061037a6004803603602081101561036457600080fd5b8101908080359060200190929190505050610a42565b6040518082815260200191505060405180910390f35b34801561039c57600080fd5b506103c9600480360360208110156103b357600080fd5b8101908080359060200190929190505050610a5a565b6040518082815260200191505060405180910390f35b3480156103eb57600080fd5b5061042e6004803603602081101561040257600080fd5b81019080803573ffffffffffffffffffffffffffffffffffffffff169060200190929190505050610a72565b005b34801561043c57600080fd5b50610445610b88565b6040518082815260200191505060405180910390f35b34801561046757600080fd5b506104aa6004803603602081101561047e57600080fd5b81019080803573ffffffffffffffffffffffffffffffffffffffff169060200190929190505050610b8e565b6040518080602001828103825283818151815260200191508051906020019060200280838360005b838110156104ed5780820151818401526020810190506104d2565b505050509050019250505060405180910390f35b34801561050d57600080fd5b5061053a6004803603602081101561052457600080fd5b8101908080359060200190929190505050610c5e565b005b34801561054857600080fd5b50610551611183565b6040518082815260200191505060405180910390f35b34801561057357600080fd5b506105aa6004803603604081101561058a57600080fd5b810190808035906020019092919080359060200190929190505050611189565b005b3480156105b857600080fd5b506105fb600480360360208110156105cf57600080fd5b81019080803573ffffffffffffffffffffffffffffffffffffffff1690602001909291905050506118a6565b6040518082815260200191505060405180910390f35b34801561061d57600080fd5b5061064a6004803603602081101561063457600080fd5b8101908080359060200190929190505050611959565b604051808273ffffffffffffffffffffffffffffffffffffffff1673ffffffffffffffffffffffffffffffffffffffff16815260200191505060405180910390f35b34801561069857600080fd5b506106db600480360360208110156106af57600080fd5b81019080803573ffffffffffffffffffffffffffffffffffffffff16906020019092919050505061198c565b6040518082815260200191505060405180910390f35b3480156106fd57600080fd5b5061072a6004803603602081101561071457600080fd5b81019080803590602001909291905050506119a4565b6040518082815260200191505060405180910390f35b34801561074c57600080fd5b506107996004803603604081101561076357600080fd5b81019080803573ffffffffffffffffffffffffffffffffffffffff169060200190929190803590602001909291905050506119bc565b6040518082815260200191505060405180910390f35b3480156107bb57600080fd5b506107e8600480360360208110156107d257600080fd5b81019080803590602001909291905050506119e1565b6040518082815260200191505060405180910390f35b34801561080a57600080fd5b506108136119f9565b604051808060200180602001838103835285818151815260200191508051906020019060200280838360005b8381101561085a57808201518184015260208101905061083f565b50505050905001838103825284818151815260200191508051906020019060200280838360005b8381101561089c578082015181840152602081019050610881565b5050505090500194505050505060405180910390f35b3480156108be57600080fd5b506108c7611b81565b005b3480156108d557600080fd5b506108de611e24565b6040518080602001828103825283818151815260200191508051906020019060200280838360005b83811015610921578082015181840152602081019050610906565b505050509050019250505060405180910390f35b61093d611f1c565b005b34801561094b57600080fd5b50610954611fb3565b6040518082815260200191505060405180910390f35b34801561097657600080fd5b506109a36004803603602081101561098d57600080fd5b8101908080359060200190929190505050611fb9565b6040518082815260200191505060405180910390f35b60008082840190508381101515156109d057600080fd5b8091505092915050565b6005602052816000526040600020602052806000526040600020600091509150505481565b600b5481565b600f6020528060005260406000206000915090505481565b6004602052816000526040600020602052806000526040600020600091509150505481565b60086020528060005260406000206000915090505481565b60066020528060005260406000206000915090505481565b806000610a7e826118a6565b90506000811115610b3a57610a9e81600c54611fd190919063ffffffff16565b600c81905550610af681600e60008573ffffffffffffffffffffffffffffffffffffffff1673ffffffffffffffffffffffffffffffffffffffff168152602001908152602001600020546109b990919063ffffffff16565b600e60008473ffffffffffffffffffffffffffffffffffffffff1673ffffffffffffffffffffffffffffffffffffffff168152602001908152602001600020819055505b600b54600a60008473ffffffffffffffffffffffffffffffffffffffff1673ffffffffffffffffffffffffffffffffffffffff16815260200190815260200160002060010181905550505050565b600c5481565b6060600060606003604051908082528060200260200182016040528015610bc45781602001602082028038833980820191505090505b50905060008090505b6003811015610c53576000808673ffffffffffffffffffffffffffffffffffffffff1673ffffffffffffffffffffffffffffffffffffffff1681526020019081526020016000206000848152602001908152602001600020548284815181101515610c3457fe5b9060200190602002018181525050600183019250600181019050610bcd565b508092505050919050565b60003390506000429050600060066000858152602001908152602001600020549050808210151515610cf8576040517f08c379a000000000000000000000000000000000000000000000000000000000815260040180806020018281038252601a8152602001807f41756374696f6e206861736e277420737461727465642079657400000000000081525060200191505060405180910390fd5b600384101515610d70576040517f08c379a00000000000000000000000000000000000000000000000000000000081526004018080602001828103825260148152602001807f4f6e6c79203320756e69747320696e2067616d6500000000000000000000000081525060200191505060405180910390fd5b6000610d858284611fd190919063ffffffff16565b90506000620186a0905062015180821015610ded57610dea82610dc762015180600860008b815260200190815260200160002054611ff390919063ffffffff16565b026008600089815260200190815260200160002054611fd190919063ffffffff16565b90505b81817fc607bbe1cf5904c70f62ec679486f4a33a9e8f5ae971632902720082cee490db60405160405180910390a380600e60008773ffffffffffffffffffffffffffffffffffffffff1673ffffffffffffffffffffffffffffffffffffffff1681526020019081526020016000205410151515610ed2576040517f08c379a000000000000000000000000000000000000000000000000000000000815260040180806020018281038252601f8152602001807f6e6f7420656e6f7567682066756e647320696e20706c617965725661756c740081525060200191505060405180910390fd5b6103e8600760008881526020019081526020016000205410151515610f5f576040517f08c379a000000000000000000000000000000000000000000000000000000000815260040180806020018281038252601e8152602001807f6e6f7420656e6f75676820756e697473206c65667420666f722073616c65000081525060200191505060405180910390fd5b610fb181600e60008873ffffffffffffffffffffffffffffffffffffffff1673ffffffffffffffffffffffffffffffffffffffff16815260200190815260200160002054611fd190919063ffffffff16565b600e60008773ffffffffffffffffffffffffffffffffffffffff1673ffffffffffffffffffffffffffffffffffffffff1681526020019081526020016000208190555061100860028261201d90919063ffffffff16565b600860008881526020019081526020016000208190555083600660008881526020019081526020016000208190555061105f6103e86007600089815260200190815260200160002054611fd190919063ffffffff16565b60076000888152602001908152602001600020819055506110da6103e86000808873ffffffffffffffffffffffffffffffffffffffff1673ffffffffffffffffffffffffffffffffffffffff1681526020019081526020016000206000898152602001908152602001600020546109b990919063ffffffff16565b6000808773ffffffffffffffffffffffffffffffffffffffff1673ffffffffffffffffffffffffffffffffffffffff1681526020019081526020016000206000888152602001908152602001600020819055506111368161205b565b85818673ffffffffffffffffffffffffffffffffffffffff167f86ba79862ac0c426bb46f7418939f3e0900e786b12d975eb50ad555465170b0e60405160405180910390a4505050505050565b60095481565b600033905060006001600085815260200190815260200160002060009054906101000a900473ffffffffffffffffffffffffffffffffffffffff1690506103e86000808473ffffffffffffffffffffffffffffffffffffffff1673ffffffffffffffffffffffffffffffffffffffff1681526020019081526020016000206000858152602001908152602001600020541015151561128f576040517f08c379a00000000000000000000000000000000000000000000000000000000081526004018080602001828103825260108152602001807f6e6f7420656e6f75676820756e6974730000000000000000000000000000000081525060200191505060405180910390fd5b8173ffffffffffffffffffffffffffffffffffffffff168173ffffffffffffffffffffffffffffffffffffffff1614151515611333576040517f08c379a00000000000000000000000000000000000000000000000000000000081526004018080602001828103825260168152602001807f63616e6e6f742061747461636b20796f757273656c660000000000000000000081525060200191505060405180910390fd5b60006003600086815260200190815260200160002054905060006113866103e86004600088815260200190815260200160002060008581526020019081526020016000205461201d90919063ffffffff16565b905060006113d460056000858152602001908152602001600020600088815260200190815260200160002054600260008a81526020019081526020016000205461201d90919063ffffffff16565b90508082111561170d576113e784610a72565b6113f085610a72565b6114436001600f60008773ffffffffffffffffffffffffffffffffffffffff1673ffffffffffffffffffffffffffffffffffffffff16815260200190815260200160002054611fd190919063ffffffff16565b600f60008673ffffffffffffffffffffffffffffffffffffffff1673ffffffffffffffffffffffffffffffffffffffff16815260200190815260200160002081905550846001600089815260200190815260200160002060006101000a81548173ffffffffffffffffffffffffffffffffffffffff021916908373ffffffffffffffffffffffffffffffffffffffff1602179055506114fe600a6114f08385611fd190919063ffffffff16565b611ff390919063ffffffff16565b60026000898152602001908152602001600020819055508560036000898152602001908152602001600020819055506115916103e86000808873ffffffffffffffffffffffffffffffffffffffff1673ffffffffffffffffffffffffffffffffffffffff168152602001908152602001600020600089815260200190815260200160002054611fd190919063ffffffff16565b6000808773ffffffffffffffffffffffffffffffffffffffff1673ffffffffffffffffffffffffffffffffffffffff1681526020019081526020016000206000888152602001908152602001600020819055506116376001600f60008873ffffffffffffffffffffffffffffffffffffffff1673ffffffffffffffffffffffffffffffffffffffff168152602001908152602001600020546109b990919063ffffffff16565b600f60008773ffffffffffffffffffffffffffffffffffffffff1673ffffffffffffffffffffffffffffffffffffffff16815260200190815260200160002081905550868473ffffffffffffffffffffffffffffffffffffffff168673ffffffffffffffffffffffffffffffffffffffff167fe819bb835033208e216f6b481ee72d8b174bf4e35d2cd7c76a4ca1698c3fa56b88604051808273ffffffffffffffffffffffffffffffffffffffff1673ffffffffffffffffffffffffffffffffffffffff16815260200191505060405180910390a45b808211151561189d5761173c600a61172e8484611fd190919063ffffffff16565b611ff390919063ffffffff16565b60026000898152602001908152602001600020819055506117b76103e86000808873ffffffffffffffffffffffffffffffffffffffff1673ffffffffffffffffffffffffffffffffffffffff168152602001908152602001600020600089815260200190815260200160002054611fd190919063ffffffff16565b6000808773ffffffffffffffffffffffffffffffffffffffff1673ffffffffffffffffffffffffffffffffffffffff168152602001908152602001600020600088815260200190815260200160002081905550868473ffffffffffffffffffffffffffffffffffffffff168673ffffffffffffffffffffffffffffffffffffffff167fe819bb835033208e216f6b481ee72d8b174bf4e35d2cd7c76a4ca1698c3fa56b87604051808273ffffffffffffffffffffffffffffffffffffffff1673ffffffffffffffffffffffffffffffffffffffff16815260200191505060405180910390a45b50505050505050565b600080611900600a60008573ffffffffffffffffffffffffffffffffffffffff1673ffffffffffffffffffffffffffffffffffffffff16815260200190815260200160002060010154600b54611fd190919063ffffffff16565b905060095481600f60008673ffffffffffffffffffffffffffffffffffffffff1673ffffffffffffffffffffffffffffffffffffffff168152602001908152602001600020540281151561195057fe5b04915050919050565b60016020528060005260406000206000915054906101000a900473ffffffffffffffffffffffffffffffffffffffff1681565b600e6020528060005260406000206000915090505481565b60026020528060005260406000206000915090505481565b6000602052816000526040600020602052806000526040600020600091509150505481565b60076020528060005260406000206000915090505481565b606080600060606064604051908082528060200260200182016040528015611a305781602001602082028038833980820191505090505b5090506060610190604051908082528060200260200182016040528015611a665781602001602082028038833980820191505090505b509050600080600090505b6064811015611b72576001600086815260200190815260200160002060009054906101000a900473ffffffffffffffffffffffffffffffffffffffff168486815181101515611abc57fe5b9060200190602002019073ffffffffffffffffffffffffffffffffffffffff16908173ffffffffffffffffffffffffffffffffffffffff168152505060026000868152602001908152602001600020548383815181101515611b1a57fe5b906020019060200201818152505060036000868152602001908152602001600020548360018401815181101515611b4d57fe5b9060200190602002018181525050600282019150600185019450600181019050611a71565b50828295509550505050509091565b336000611b8d826118a6565b90506000811115611c4957611bad81600c54611fd190919063ffffffff16565b600c81905550611c0581600e60008573ffffffffffffffffffffffffffffffffffffffff1673ffffffffffffffffffffffffffffffffffffffff168152602001908152602001600020546109b990919063ffffffff16565b600e60008473ffffffffffffffffffffffffffffffffffffffff1673ffffffffffffffffffffffffffffffffffffffff168152602001908152602001600020819055505b600b54600a60008473ffffffffffffffffffffffffffffffffffffffff1673ffffffffffffffffffffffffffffffffffffffff1681526020019081526020016000206001018190555060003390506000600e60008373ffffffffffffffffffffffffffffffffffffffff1673ffffffffffffffffffffffffffffffffffffffff16815260200190815260200160002054111515611d4e576040517f08c379a00000000000000000000000000000000000000000000000000000000081526004018080602001828103825260168152602001807f6e6f7468696e6720696e20706c617965725661756c740000000000000000000081525060200191505060405180910390fd5b6000600e60008373ffffffffffffffffffffffffffffffffffffffff1673ffffffffffffffffffffffffffffffffffffffff1681526020019081526020016000205490506000600e60008473ffffffffffffffffffffffffffffffffffffffff1673ffffffffffffffffffffffffffffffffffffffff168152602001908152602001600020819055508173ffffffffffffffffffffffffffffffffffffffff166108fc829081150290604051600060405180830381858888f19350505050158015611e1d573d6000803e3d6000fd5b5050505050565b6060600060606009604051908082528060200260200182016040528015611e5a5781602001602082028038833980820191505090505b50905060008090505b6003811015611f135760066000828152602001908152602001600020548284815181101515611e8e57fe5b906020019060200201818152505060076000828152602001908152602001600020548260018501815181101515611ec157fe5b906020019060200201818152505060086000828152602001908152602001600020548260028501815181101515611ef457fe5b9060200190602002018181525050600383019250600181019050611e63565b50809250505090565b611f6e34600e60003373ffffffffffffffffffffffffffffffffffffffff1673ffffffffffffffffffffffffffffffffffffffff168152602001908152602001600020546109b990919063ffffffff16565b600e60003373ffffffffffffffffffffffffffffffffffffffff1673ffffffffffffffffffffffffffffffffffffffff16815260200190815260200160002081905550565b600d5481565b60036020528060005260406000206000915090505481565b6000828211151515611fe257600080fd5b600082840390508091505092915050565b6000808211151561200357600080fd5b6000828481151561201057fe5b0490508091505092915050565b6000808314156120305760009050612055565b6000828402905082848281151561204357fe5b0414151561205057600080fd5b809150505b92915050565b612098612087600d546120796009548561201d90919063ffffffff16565b611ff390919063ffffffff16565b600b546109b990919063ffffffff16565b600b819055506120b381600c546109b990919063ffffffff16565b600c819055505056fea165627a7a723058202eb42318f16f543464935f2db147ea9389a71f52c58f1136ecaefd631f0df44b0029",
  "source": "pragma solidity ^0.5.0;\n\n// ----------------------------------------------------------------------------\n// Safe maths\n// ----------------------------------------------------------------------------\nlibrary SafeMath {\n    /**\n     * @dev Multiplies two unsigned integers, reverts on overflow.\n     */\n    function mul(uint256 a, uint256 b) internal pure returns (uint256) {\n        // Gas optimization: this is cheaper than requiring 'a' not being zero, but the\n        // benefit is lost if 'b' is also tested.\n        // See: https://github.com/OpenZeppelin/openzeppelin-solidity/pull/522\n        if (a == 0) {\n            return 0;\n        }\n\n        uint256 c = a * b;\n        require(c / a == b);\n\n        return c;\n    }\n\n    /**\n     * @dev Integer division of two unsigned integers truncating the quotient, reverts on division by zero.\n     */\n    function div(uint256 a, uint256 b) internal pure returns (uint256) {\n        // Solidity only automatically asserts when dividing by 0\n        require(b > 0);\n        uint256 c = a / b;\n        // assert(a == b * c + a % b); // There is no case in which this doesn't hold\n\n        return c;\n    }\n\n    /**\n     * @dev Subtracts two unsigned integers, reverts on overflow (i.e. if subtrahend is greater than minuend).\n     */\n    function sub(uint256 a, uint256 b) internal pure returns (uint256) {\n        require(b <= a);\n        uint256 c = a - b;\n\n        return c;\n    }\n\n    /**\n     * @dev Adds two unsigned integers, reverts on overflow.\n     */\n    function add(uint256 a, uint256 b) internal pure returns (uint256) {\n        uint256 c = a + b;\n        require(c >= a);\n\n        return c;\n    }\n\n    /**\n     * @dev Divides two unsigned integers and returns the remainder (unsigned integer modulo),\n     * reverts when dividing by zero.\n     */\n    function mod(uint256 a, uint256 b) internal pure returns (uint256) {\n        require(b != 0);\n        return a % b;\n    }\n}\n\n// Berserkers contract\ncontract Berserkers10  {\n    using SafeMath for uint;\n    // unit ownership\n    mapping(address => mapping(uint256 => uint256))public unitsOwned;//address =>unittype =>amount owned\n    \n    // battlefield setup\n    mapping(uint256 => address)public owner;\n    mapping(uint256 => uint256)public soldierAmount;\n    mapping(uint256 => uint256)public soldiertype;\n    \n    mapping(uint256 => mapping(uint256 => uint256))public attackMod;\n    mapping(uint256=> mapping(uint256 => uint256))public defenseMod;\n    \n    //auction sale setup\n    mapping(uint256 => uint256)public auctionStartTime;\n    mapping(uint256 => uint256)public unitsLeftForSale;\n    mapping(uint256 => uint256)public unitsPrice;\n    \n    //divsection    \n    uint256 public pointMultiplier = 10e18;\n    struct Account {\n        uint balance;\n        uint lastDividendPoints;\n    }\n    mapping(address=>Account) accounts;\n\n    uint256 public totalDividendPoints;\n    uint256 public unclaimedDividends;\n    uint256 public totalSupplyStake;\n    mapping(address => uint256)public playerVault;\n    mapping(address => uint256)public stake;\n\n    function dividendsOwing(address account) public view returns(uint256) {\n        uint256 newDividendPoints = totalDividendPoints.sub(accounts[account].lastDividendPoints);\n        return (stake[account] * newDividendPoints) / pointMultiplier;\n    }\n    modifier updateAccount(address account) {\n        uint256 owing = dividendsOwing(account);\n        if(owing > 0) {\n            unclaimedDividends = unclaimedDividends.sub(owing);\n            playerVault[account] = playerVault[account].add(owing);\n            }\n        accounts[account].lastDividendPoints = totalDividendPoints;\n    _;\n    }   \n    function () external payable{playerVault[msg.sender] = playerVault[msg.sender].add(msg.value);}\n    function topUp () external payable{playerVault[msg.sender] = playerVault[msg.sender].add(msg.value);}\n    function fetchdivs(address account) public updateAccount(account){}\n    function vaultToWallet() public updateAccount(msg.sender)\n    {\n        address payable sender = msg.sender;\n        require(playerVault[sender] > 0,\"nothing in playerVault\");\n        uint256 amount = playerVault[sender];\n        playerVault[sender] = 0;\n        sender.transfer(amount);\n    }\n    function disburse(uint256 amount) internal {\n        totalDividendPoints = totalDividendPoints.add(amount.mul(pointMultiplier).div(totalSupplyStake));\n        unclaimedDividends = unclaimedDividends.add(amount);\n    }\n    // Dutch auction sale logics\n    function DutchAuctionBuy(uint256 unit) public {\n        address sender = msg.sender;\n        uint256 time = block.timestamp;\n        uint256 unitTime = auctionStartTime[unit];\n        require(time >= unitTime,\"Auction hasn't started yet\");\n        require(unit < 3,\"Only 3 units in game\");\n        uint256 diff = time.sub(unitTime);\n        uint256 price = 100000;\n        if(diff < 86400){price = unitsPrice[unit].sub(unitsPrice[unit].div(86400)*diff);}\n        emit pricing(price, diff);\n        require(playerVault[sender] >= price,\"not enough funds in playerVault\");\n        require(unitsLeftForSale[unit] >= 1000,\"not enough units left for sale\");\n        playerVault[sender] = playerVault[sender].sub(price);\n        unitsPrice[unit] = price.mul(2);\n        auctionStartTime[unit] = time;\n        unitsLeftForSale[unit] = unitsLeftForSale[unit].sub(1000);\n        unitsOwned[sender][unit] = unitsOwned[sender][unit].add(1000);\n        disburse(price);\n        emit unitsBought(sender,price,unit);\n    }\n    // battlefield functions\n    function Attack(uint256 spot, uint256 unit) public {\n        address sender = msg.sender;\n        address defender = owner[spot];\n        require(unitsOwned[sender][unit] >= 1000, \"not enough units\");\n        require(defender != sender, \"cannot attack yourself\");\n        // determine winner\n        uint256 defenderType = soldiertype[spot];\n        uint256 totalattack = attackMod[unit][defenderType].mul(1000);\n        uint256 totaldefense = soldierAmount[spot].mul(defenseMod[defenderType][unit]);\n        if(totalattack > totaldefense)\n        {\n            // fetch divs defender\n            fetchdivs(defender);\n            // fetch divs attacker\n            fetchdivs(sender);\n            // remove losers stake\n            stake[defender] = stake[defender].sub(1);\n            // change ownership\n            owner[spot] = sender;\n            // change defender unit and type\n            soldierAmount[spot] = (totalattack.sub(totaldefense)).div(10);\n            soldiertype[spot] = unit;\n            // deduct spent units\n            unitsOwned[sender][unit] = unitsOwned[sender][unit].sub(1000);\n            // add winners stake\n             stake[sender] = stake[sender].add(1);\n             // emit event\n             emit battle(sender,defender,spot,sender);\n        }\n        if(totalattack <= totaldefense)\n        {\n            // change casualties\n            soldierAmount[spot] = (totaldefense.sub(totalattack)).div(10);\n            // deduct spent units\n            unitsOwned[sender][unit] = unitsOwned[sender][unit].sub(1000);\n            // emit event\n            emit battle(sender,defender,spot,defender);\n        }\n    }\n    // UI functions\n    function getBattlefieldInfo() public view returns(address[] memory _Owner, uint256[] memory locationData ){\n          uint i;\n          address[] memory _locationOwner = new address[](100); //owner\n          uint[] memory _locationData = new uint[](100*4); //amount-type\n          uint y;\n          for(uint x = 0; x < 100; x+=1){\n\n                _locationOwner[i] = owner[i];\n                _locationData[y] = soldierAmount[i];\n                _locationData[y+1] = soldiertype[i];\n              y += 2;\n              i+=1;\n            }\n          return (_locationOwner,_locationData);\n        }\n    function getPlayerInfo(address account) public view returns( uint256[] memory locationData ){\n          uint i;\n          uint[] memory _locationData = new uint[](3); //amount \n          for(uint x = 0; x < 3; x+=1){\n                _locationData[i] = unitsOwned[account][i];\n              i+=1;\n            }\n          return (_locationData);\n        }\n    function getAuctionInfo() public view returns( uint256[] memory locationData ){\n          uint i;\n          uint[] memory _locationData = new uint[](3*3); //time - units-price \n          for(uint x = 0; x < 3; x+=1){\n                _locationData[i] = auctionStartTime[x];\n                _locationData[i+1] = unitsLeftForSale[x];\n                _locationData[i+2] = unitsPrice[x];\n              i+=3;\n            }\n          return (_locationData);\n        }\n    // startup setups\n    constructor()\n        public\n    {\n        totalSupplyStake = 10;\n        \n        auctionStartTime[0] = block.timestamp;\n        auctionStartTime[1] = block.timestamp;\n        auctionStartTime[2] = block.timestamp;\n        unitsLeftForSale[0] = 1000000;\n        unitsLeftForSale[1] = 1000000;\n        unitsLeftForSale[2] = 1000000;\n        unitsPrice[0] = 1 finney;\n        unitsPrice[1] = 1 finney;\n        unitsPrice[2] = 1 finney;\n        for(uint256 i=0;i<totalSupplyStake;i++){\n            owner[i] = 0x67EdFe6E933b6A9bCB923E036D976b48e43cF330;\n            soldierAmount[i]= 200;\n        }\n        // 0 : cav\n        // 1 : S\n        // 2 : P\n        attackMod[0][0] = 10;\n        attackMod[0][1] = 35;\n        attackMod[0][2] = 1;\n        attackMod[1][0] = 10;\n        attackMod[1][1] = 5;\n        attackMod[1][2] = 25;\n        attackMod[2][0] = 20;\n        attackMod[2][1] = 1;\n        attackMod[2][2] = 5;\n\n        defenseMod[0][0] = 30;\n        defenseMod[0][1] = 30;\n        defenseMod[0][2] = 10;\n        defenseMod[1][0] = 5;\n        defenseMod[1][1] = 20;\n        defenseMod[1][2] = 30;\n        defenseMod[2][0] = 45;\n        defenseMod[2][1] = 5;\n        defenseMod[2][2] = 15;\n        \n        stake[0x67EdFe6E933b6A9bCB923E036D976b48e43cF330] = 10;\n    }\n     // events\n  \n    event unitsBought(address indexed player, uint256 indexed price, uint256 indexed unit);\n    event battle (address indexed attacker, address indexed defender, uint256 indexed spot, address winner);\n    event pricing ( uint256 indexed price, uint256 indexed time);\n}",
  "sourcePath": "/home/chloethedev/Dapps/Berserkers/frontend/contracts/Berserksers10.sol",
  "compiler": {
    "name": "solc",
    "version": "0.5.2+commit.1df8f40c.Emscripten.clang"
  },
  "schemaVersion": "3.0.21",
  "updatedAt": "2020-01-27T16:43:25.340Z",
  "networkType": "ethereum",
  "devdoc": {
    "methods": {}
  },
  "userdoc": {
    "methods": {}
  }
}